{
  "contractName": "Grade",
  "abi": [
    {
      "constant": true,
      "inputs": [
        {
          "name": "",
          "type": "uint256"
        }
      ],
      "name": "students",
      "outputs": [
        {
          "name": "id",
          "type": "uint256"
        },
        {
          "name": "name",
          "type": "string"
        },
        {
          "name": "icno",
          "type": "uint256"
        },
        {
          "name": "subjectCount",
          "type": "uint256"
        }
      ],
      "payable": false,
      "stateMutability": "view",
      "type": "function",
      "signature": "0x06ead22e"
    },
    {
      "constant": true,
      "inputs": [],
      "name": "bmCount",
      "outputs": [
        {
          "name": "",
          "type": "uint256"
        }
      ],
      "payable": false,
      "stateMutability": "view",
      "type": "function",
      "signature": "0x139367c9"
    },
    {
      "constant": true,
      "inputs": [],
      "name": "subjectsCount",
      "outputs": [
        {
          "name": "",
          "type": "uint256"
        }
      ],
      "payable": false,
      "stateMutability": "view",
      "type": "function",
      "signature": "0x2c39f525"
    },
    {
      "constant": true,
      "inputs": [
        {
          "name": "",
          "type": "uint256"
        }
      ],
      "name": "subjects",
      "outputs": [
        {
          "name": "subjectId",
          "type": "uint256"
        },
        {
          "name": "subjectName",
          "type": "string"
        },
        {
          "name": "marks",
          "type": "uint256"
        },
        {
          "name": "graded",
          "type": "bool"
        }
      ],
      "payable": false,
      "stateMutability": "view",
      "type": "function",
      "signature": "0x2c7424af"
    },
    {
      "constant": true,
      "inputs": [],
      "name": "studentsCount",
      "outputs": [
        {
          "name": "",
          "type": "uint256"
        }
      ],
      "payable": false,
      "stateMutability": "view",
      "type": "function",
      "signature": "0x68433a3a"
    },
    {
      "constant": true,
      "inputs": [
        {
          "name": "",
          "type": "address"
        }
      ],
      "name": "graders",
      "outputs": [
        {
          "name": "",
          "type": "bool"
        }
      ],
      "payable": false,
      "stateMutability": "view",
      "type": "function",
      "signature": "0x8e281168"
    },
    {
      "constant": true,
      "inputs": [
        {
          "name": "",
          "type": "uint256"
        }
      ],
      "name": "bm",
      "outputs": [
        {
          "name": "BMID",
          "type": "uint256"
        },
        {
          "name": "studentID",
          "type": "uint256"
        },
        {
          "name": "studentName",
          "type": "string"
        },
        {
          "name": "marks",
          "type": "uint256"
        }
      ],
      "payable": false,
      "stateMutability": "view",
      "type": "function",
      "signature": "0xfbcdcd30"
    },
    {
      "inputs": [],
      "payable": false,
      "stateMutability": "nonpayable",
      "type": "constructor",
      "signature": "constructor"
    },
    {
      "anonymous": false,
      "inputs": [
        {
          "indexed": true,
          "name": "_subjectId",
          "type": "uint256"
        }
      ],
      "name": "gradedEvent",
      "type": "event",
      "signature": "0x1394a2a4e0aa3285917ba0136730757230f369598ab84273c30a6b17007b2567"
    },
    {
      "constant": false,
      "inputs": [
        {
          "name": "_BMID",
          "type": "uint256"
        },
        {
          "name": "_subjectMarks",
          "type": "uint256"
        }
      ],
      "name": "grade",
      "outputs": [],
      "payable": false,
      "stateMutability": "nonpayable",
      "type": "function",
      "signature": "0x5c2b4fcf"
    }
  ],
  "bytecode": "0x608060405234801561001057600080fd5b5061006060016040805190810160405280600481526020017f4164616d000000000000000000000000000000000000000000000000000000008152506100b4640100000000026401000000009004565b6100af60026040805190810160405280600581526020017f53746576650000000000000000000000000000000000000000000000000000008152506100b4640100000000026401000000009004565b6101e7565b6006600081548092919060010191905055506080604051908101604052806006548152602001838152602001828152602001600081525060026000600654815260200190815260200160002060008201518160000155602082015181600101556040820151816002019080519060200190610130929190610142565b50606082015181600301559050505050565b828054600181600116156101000203166002900490600052602060002090601f016020900481019282601f1061018357805160ff19168380011785556101b1565b828001600101855582156101b1579182015b828111156101b0578251825591602001919060010190610195565b5b5090506101be91906101c2565b5090565b6101e491905b808211156101e05760008160009055506001016101c8565b5090565b90565b61076a806101f66000396000f3fe60806040526004361061008e576000357c0100000000000000000000000000000000000000000000000000000000900463ffffffff16806306ead22e14610093578063139367c91461015c5780632c39f525146101875780632c7424af146101b25780635c2b4fcf1461027f57806368433a3a146102c45780638e281168146102ef578063fbcdcd3014610358575b600080fd5b34801561009f57600080fd5b506100cc600480360360208110156100b657600080fd5b8101908080359060200190929190505050610421565b6040518085815260200180602001848152602001838152602001828103825285818151815260200191508051906020019080838360005b8381101561011e578082015181840152602081019050610103565b50505050905090810190601f16801561014b5780820380516001836020036101000a031916815260200191505b509550505050505060405180910390f35b34801561016857600080fd5b506101716104e9565b6040518082815260200191505060405180910390f35b34801561019357600080fd5b5061019c6104ef565b6040518082815260200191505060405180910390f35b3480156101be57600080fd5b506101eb600480360360208110156101d557600080fd5b81019080803590602001909291905050506104f5565b604051808581526020018060200184815260200183151515158152602001828103825285818151815260200191508051906020019080838360005b83811015610241578082015181840152602081019050610226565b50505050905090810190601f16801561026e5780820380516001836020036101000a031916815260200191505b509550505050505060405180910390f35b34801561028b57600080fd5b506102c2600480360360408110156102a257600080fd5b8101908080359060200190929190803590602001909291905050506105ca565b005b3480156102d057600080fd5b506102d9610650565b6040518082815260200191505060405180910390f35b3480156102fb57600080fd5b5061033e6004803603602081101561031257600080fd5b81019080803573ffffffffffffffffffffffffffffffffffffffff169060200190929190505050610656565b604051808215151515815260200191505060405180910390f35b34801561036457600080fd5b506103916004803603602081101561037b57600080fd5b8101908080359060200190929190505050610676565b6040518085815260200184815260200180602001838152602001828103825284818151815260200191508051906020019080838360005b838110156103e35780820151818401526020810190506103c8565b50505050905090810190601f1680156104105780820380516001836020036101000a031916815260200191505b509550505050505060405180910390f35b6000602052806000526040600020600091509050806000015490806001018054600181600116156101000203166002900480601f0160208091040260200160405190810160405280929190818152602001828054600181600116156101000203166002900480156104d35780601f106104a8576101008083540402835291602001916104d3565b820191906000526020600020905b8154815290600101906020018083116104b657829003601f168201915b5050505050908060020154908060030154905084565b60065481565b60055481565b6001602052806000526040600020600091509050806000015490806001018054600181600116156101000203166002900480601f0160208091040260200160405190810160405280929190818152602001828054600181600116156101000203166002900480156105a75780601f1061057c576101008083540402835291602001916105a7565b820191906000526020600020905b81548152906001019060200180831161058a57829003601f168201915b5050505050908060020154908060030160009054906101000a900460ff16905084565b6000821180156105dc57506006548211155b15156105e757600080fd5b600081101580156105f9575060648111155b151561060457600080fd5b806002600084815260200190815260200160002060030181905550817f1394a2a4e0aa3285917ba0136730757230f369598ab84273c30a6b17007b256760405160405180910390a25050565b60045481565b60036020528060005260406000206000915054906101000a900460ff1681565b6002602052806000526040600020600091509050806000015490806001015490806002018054600181600116156101000203166002900480601f01602080910402602001604051908101604052809291908181526020018280546001816001161561010002031660029004801561072e5780601f106107035761010080835404028352916020019161072e565b820191906000526020600020905b81548152906001019060200180831161071157829003601f168201915b505050505090806003015490508456fea165627a7a7230582017537b44c5d8556c83e66502854a5f9fac7527252b1bbaee37f73700aadff7640029",
  "source": "pragma solidity ^0.5.0;\r\n\r\ncontract Grade {\r\n    //Modelling a Student\r\n    struct Student {\r\n        uint id;\r\n        string name;\r\n        uint icno;\r\n        uint subjectCount;\r\n    }\r\n\r\n    struct Subject {\r\n        uint subjectId;\r\n        string subjectName;\r\n        uint marks;\r\n        bool graded;\r\n        //uint studentId;\r\n    }\r\n\r\n    struct BahasaMalaysia {\r\n        uint BMID;\r\n        uint studentID;\r\n        string studentName;\r\n        uint marks;\r\n    }\r\n\r\n    //Read/write students\r\n    mapping(uint => Student) public students;\r\n\r\n    mapping(uint => Subject) public subjects;\r\n\r\n    mapping(uint => BahasaMalaysia) public bm;\r\n\r\n    mapping(address => bool) public graders;\r\n\r\n    //Store Students Count\r\n    uint public studentsCount;\r\n\r\n    uint public subjectsCount;\r\n\r\n    uint public bmCount;\r\n\r\n    event gradedEvent (\r\n        uint indexed _subjectId\r\n    );\r\n\r\n    //Constructor\r\n    constructor () public {\r\n        /*addSubject(\"Bahasa Malaysia\");\r\n        addSubject(\"Bahasa Inggeris\");\r\n        addSubject(\"Pendidikan Islam\");\r\n        addSubject(\"Pendididkan Moral\");\r\n        addSubject(\"Sejarah\");\r\n        addSubject(\"Mathematics\");\r\n        addSubject(\"Physics\");\r\n        addSubject(\"Chemistry\");\r\n        addSubject(\"Biology\");\r\n        addSubject(\"Add Maths\");\r\n        addStudent(\"Bob\", 970225015607, 10);\r\n        addStudent(\"Marley\", 980223024302, 10);*/\r\n        enrollBM(1, \"Adam\");\r\n        enrollBM(2, \"Steve\");\r\n    }\r\n\r\n    /*function addSubject (string memory _subjectName) private {\r\n        subjectsCount++;\r\n        subjects[subjectsCount] = Subject(subjectsCount, _subjectName, 0, false);\r\n    }\r\n\r\n    function addStudent (string memory _name, uint _icno, uint _subjectCount) private {\r\n        studentsCount++;\r\n        students[studentsCount] = Student(studentsCount, _name, _icno, _subjectCount);\r\n    }*/\r\n\r\n    function enrollBM (uint _studentID, string memory _studentName) private {\r\n        bmCount++;\r\n        bm[bmCount] = BahasaMalaysia(bmCount, _studentID, _studentName, 0);\r\n    }\r\n\r\n    function grade (uint _BMID, uint _subjectMarks) public {\r\n        //Require that the subject hasn't been graded before\r\n        //require(subjects[_subjectId].graded == false);\r\n\r\n        //Require a valid subject\r\n        require(_BMID> 0 && _BMID <= bmCount);\r\n\r\n        //Require a valid grade\r\n        require(_subjectMarks >=0 && _subjectMarks <= 100);\r\n\r\n        //Update student grade\r\n        bm[_BMID].marks = _subjectMarks;\r\n\r\n        //subjects[_subjectId].graded = _graded;\r\n\r\n        //subjects[_subjectId].studentId = _studentId;\r\n\r\n        emit gradedEvent(_BMID);\r\n    }\r\n\r\n    /*function finalise (uint _subjectId) public {\r\n        //Require that they haven't graded a student before\r\n        require(!graders[msg.sender]);\r\n\r\n        //Record that teacher has graded\r\n        graders[msg.sender] = true;\r\n\r\n        emit gradedEvent(_subjectId);\r\n    }*/\r\n}",
  "sourcePath": "C:/FYP Dapp/GradeManagement/Code/contracts/Grade.sol",
  "compiler": {
    "name": "solc",
    "version": "0.5.0+commit.1d4f565a.Emscripten.clang"
  },
  "schemaVersion": "3.0.2",
  "updatedAt": "2019-03-22T04:15:45.289Z",
  "devdoc": {
    "methods": {}
  },
  "userdoc": {
    "methods": {}
  }
}